{"abi":[{"type":"constructor","inputs":[{"name":"_witnessToken","type":"address","internalType":"address"},{"name":"_registry","type":"address","internalType":"address"},{"name":"_grantAmount","type":"uint256","internalType":"uint256"}],"stateMutability":"nonpayable"},{"type":"function","name":"claimAndAnchor","inputs":[{"name":"agentPubKeyHash","type":"bytes32","internalType":"bytes32"},{"name":"chainRoot","type":"bytes32","internalType":"bytes32"},{"name":"entryCount","type":"uint64","internalType":"uint64"},{"name":"signature","type":"bytes","internalType":"bytes"}],"outputs":[],"stateMutability":"payable"},{"type":"function","name":"getNetGrantAmount","inputs":[],"outputs":[{"name":"","type":"uint256","internalType":"uint256"}],"stateMutability":"view"},{"type":"function","name":"getRemainingGrants","inputs":[],"outputs":[{"name":"","type":"uint256","internalType":"uint256"}],"stateMutability":"view"},{"type":"function","name":"grantAmount","inputs":[],"outputs":[{"name":"","type":"uint256","internalType":"uint256"}],"stateMutability":"view"},{"type":"function","name":"hasAgentClaimed","inputs":[{"name":"agentPubKeyHash","type":"bytes32","internalType":"bytes32"}],"outputs":[{"name":"","type":"bool","internalType":"bool"}],"stateMutability":"view"},{"type":"function","name":"hasClaimed","inputs":[{"name":"","type":"bytes32","internalType":"bytes32"}],"outputs":[{"name":"","type":"bool","internalType":"bool"}],"stateMutability":"view"},{"type":"function","name":"hasWalletClaimed","inputs":[{"name":"wallet","type":"address","internalType":"address"}],"outputs":[{"name":"","type":"bool","internalType":"bool"}],"stateMutability":"view"},{"type":"function","name":"owner","inputs":[],"outputs":[{"name":"","type":"address","internalType":"address"}],"stateMutability":"view"},{"type":"function","name":"registry","inputs":[],"outputs":[{"name":"","type":"address","internalType":"contract IWitnessRegistry"}],"stateMutability":"view"},{"type":"function","name":"renounceOwnership","inputs":[],"outputs":[],"stateMutability":"nonpayable"},{"type":"function","name":"setGrantAmount","inputs":[{"name":"_amount","type":"uint256","internalType":"uint256"}],"outputs":[],"stateMutability":"nonpayable"},{"type":"function","name":"totalGrantsIssued","inputs":[],"outputs":[{"name":"","type":"uint256","internalType":"uint256"}],"stateMutability":"view"},{"type":"function","name":"transferOwnership","inputs":[{"name":"newOwner","type":"address","internalType":"address"}],"outputs":[],"stateMutability":"nonpayable"},{"type":"function","name":"walletClaimed","inputs":[{"name":"","type":"address","internalType":"address"}],"outputs":[{"name":"","type":"bool","internalType":"bool"}],"stateMutability":"view"},{"type":"function","name":"withdrawEth","inputs":[],"outputs":[],"stateMutability":"nonpayable"},{"type":"function","name":"withdrawTokens","inputs":[{"name":"amount","type":"uint256","internalType":"uint256"}],"outputs":[],"stateMutability":"nonpayable"},{"type":"function","name":"witnessToken","inputs":[],"outputs":[{"name":"","type":"address","internalType":"contract IERC20"}],"stateMutability":"view"},{"type":"event","name":"Claimed","inputs":[{"name":"agentPubKeyHash","type":"bytes32","indexed":true,"internalType":"bytes32"},{"name":"recipient","type":"address","indexed":true,"internalType":"address"},{"name":"netAmount","type":"uint256","indexed":false,"internalType":"uint256"},{"name":"grantIndex","type":"uint256","indexed":false,"internalType":"uint256"}],"anonymous":false},{"type":"event","name":"GrantAmountUpdated","inputs":[{"name":"oldAmount","type":"uint256","indexed":false,"internalType":"uint256"},{"name":"newAmount","type":"uint256","indexed":false,"internalType":"uint256"}],"anonymous":false},{"type":"event","name":"OwnershipTransferred","inputs":[{"name":"previousOwner","type":"address","indexed":true,"internalType":"address"},{"name":"newOwner","type":"address","indexed":true,"internalType":"address"}],"anonymous":false},{"type":"error","name":"AgentAlreadyClaimed","inputs":[]},{"type":"error","name":"GrantTransferFailed","inputs":[]},{"type":"error","name":"InsufficientEthForDustFee","inputs":[]},{"type":"error","name":"InsufficientPoolBalance","inputs":[]},{"type":"error","name":"OwnableInvalidOwner","inputs":[{"name":"owner","type":"address","internalType":"address"}]},{"type":"error","name":"OwnableUnauthorizedAccount","inputs":[{"name":"account","type":"address","internalType":"address"}]},{"type":"error","name":"WalletAlreadyClaimed","inputs":[]}],"bytecode":{"object":"0x60c060405234801561000f575f5ffd5b50604051611b17380380611b1783398181016040528101906100319190610317565b335f73ffffffffffffffffffffffffffffffffffffffff168173ffffffffffffffffffffffffffffffffffffffff16036100a2575f6040517f1e4fbdf70000000000000000000000000000000000000000000000000000000081526004016100999190610376565b60405180910390fd5b6100b1816101c560201b60201c565b508273ffffffffffffffffffffffffffffffffffffffff1660808173ffffffffffffffffffffffffffffffffffffffff16815250508173ffffffffffffffffffffffffffffffffffffffff1660a08173ffffffffffffffffffffffffffffffffffffffff1681525050806001819055508273ffffffffffffffffffffffffffffffffffffffff1663095ea7b3837fffffffffffffffffffffffffffffffffffffffffffffffffffffffffffffffff6040518363ffffffff1660e01b815260040161017c92919061039e565b6020604051808303815f875af1158015610198573d5f5f3e3d5ffd5b505050506040513d601f19601f820116820180604052508101906101bc91906103fa565b50505050610425565b5f5f5f9054906101000a900473ffffffffffffffffffffffffffffffffffffffff169050815f5f6101000a81548173ffffffffffffffffffffffffffffffffffffffff021916908373ffffffffffffffffffffffffffffffffffffffff1602179055508173ffffffffffffffffffffffffffffffffffffffff168173ffffffffffffffffffffffffffffffffffffffff167f8be0079c531659141344cd1fd0a4f28419497f9722a3daafe3b4186f6b6457e060405160405180910390a35050565b5f5ffd5b5f73ffffffffffffffffffffffffffffffffffffffff82169050919050565b5f6102b38261028a565b9050919050565b6102c3816102a9565b81146102cd575f5ffd5b50565b5f815190506102de816102ba565b92915050565b5f819050919050565b6102f6816102e4565b8114610300575f5ffd5b50565b5f81519050610311816102ed565b92915050565b5f5f5f6060848603121561032e5761032d610286565b5b5f61033b868287016102d0565b935050602061034c868287016102d0565b925050604061035d86828701610303565b9150509250925092565b610370816102a9565b82525050565b5f6020820190506103895f830184610367565b92915050565b610398816102e4565b82525050565b5f6040820190506103b15f830185610367565b6103be602083018461038f565b9392505050565b5f8115159050919050565b6103d9816103c5565b81146103e3575f5ffd5b50565b5f815190506103f4816103d0565b92915050565b5f6020828403121561040f5761040e610286565b5b5f61041c848285016103e6565b91505092915050565b60805160a05161169961047e5f395f81816103da015281816105dc01528181610828015281816108b80152610af301525f81816104a7015281816105b80152818161094801528181610b950152610ce601526116995ff3fe6080604052600436106100fd575f3560e01c80638da5cb5b11610094578063a894c45711610063578063a894c457146102f1578063be36a5c41461032d578063c25d8f4d14610349578063e45bb52214610385578063f2fde38b146103af576100fd565b80638da5cb5b1461025f57806392073251146102895780639a058892146102b3578063a0ef91df146102db576100fd565b80635d34f4a6116100d05780635d34f4a6146101b9578063715018a6146101f557806379c859bc1461020b5780637b10399914610235576100fd565b8063111849b914610101578063259d80281461012b578063315a095d1461016757806352fdb2bb1461018f575b5f5ffd5b34801561010c575f5ffd5b506101156103d7565b6040516101229190610f7d565b60405180910390f35b348015610136575f5ffd5b50610151600480360381019061014c9190610fd1565b610477565b60405161015e9190611016565b60405180910390f35b348015610172575f5ffd5b5061018d60048036038101906101889190611059565b61049d565b005b34801561019a575f5ffd5b506101a361054b565b6040516101b09190610f7d565b60405180910390f35b3480156101c4575f5ffd5b506101df60048036038101906101da91906110de565b610551565b6040516101ec9190611016565b60405180910390f35b348015610200575f5ffd5b506102096105a3565b005b348015610216575f5ffd5b5061021f6105b6565b60405161022c9190611164565b60405180910390f35b348015610240575f5ffd5b506102496105da565b604051610256919061119d565b60405180910390f35b34801561026a575f5ffd5b506102736105fe565b60405161028091906111c5565b60405180910390f35b348015610294575f5ffd5b5061029d610625565b6040516102aa9190610f7d565b60405180910390f35b3480156102be575f5ffd5b506102d960048036038101906102d49190611059565b61062b565b005b3480156102e6575f5ffd5b506102ef610678565b005b3480156102fc575f5ffd5b5061031760048036038101906103129190610fd1565b610732565b6040516103249190611016565b60405180910390f35b6103476004803603810190610342919061127c565b61074f565b005b348015610354575f5ffd5b5061036f600480360381019061036a91906110de565b610cc5565b60405161037c9190611016565b60405180910390f35b348015610390575f5ffd5b50610399610ce2565b6040516103a69190610f7d565b60405180910390f35b3480156103ba575f5ffd5b506103d560048036038101906103d091906110de565b610d92565b005b5f7f000000000000000000000000000000000000000000000000000000000000000073ffffffffffffffffffffffffffffffffffffffff1663919acbe66040518163ffffffff1660e01b8152600401602060405180830381865afa158015610441573d5f5f3e3d5ffd5b505050506040513d601f19601f820116820180604052508101906104659190611314565b600154610472919061136c565b905090565b5f60025f8381526020019081526020015f205f9054906101000a900460ff169050919050565b6104a5610e16565b7f000000000000000000000000000000000000000000000000000000000000000073ffffffffffffffffffffffffffffffffffffffff1663a9059cbb6104e96105fe565b836040518363ffffffff1660e01b815260040161050792919061139f565b6020604051808303815f875af1158015610523573d5f5f3e3d5ffd5b505050506040513d601f19601f8201168201806040525081019061054791906113f0565b5050565b60015481565b5f60035f8373ffffffffffffffffffffffffffffffffffffffff1673ffffffffffffffffffffffffffffffffffffffff1681526020019081526020015f205f9054906101000a900460ff169050919050565b6105ab610e16565b6105b45f610e9d565b565b7f000000000000000000000000000000000000000000000000000000000000000081565b7f000000000000000000000000000000000000000000000000000000000000000081565b5f5f5f9054906101000a900473ffffffffffffffffffffffffffffffffffffffff16905090565b60045481565b610633610e16565b7f01e2f9e79d4a3417f72310e06141d799a0ebf3af0e8114ffa319699a4e1fb61e6001548260405161066692919061141b565b60405180910390a18060018190555050565b610680610e16565b5f6106896105fe565b73ffffffffffffffffffffffffffffffffffffffff16476040516106ac9061146f565b5f6040518083038185875af1925050503d805f81146106e6576040519150601f19603f3d011682016040523d82523d5f602084013e6106eb565b606091505b505090508061072f576040517f08c379a0000000000000000000000000000000000000000000000000000000008152600401610726906114dd565b60405180910390fd5b50565b6002602052805f5260405f205f915054906101000a900460ff1681565b60025f8681526020019081526020015f205f9054906101000a900460ff16156107a4576040517fc96f4bc300000000000000000000000000000000000000000000000000000000815260040160405180910390fd5b60035f3373ffffffffffffffffffffffffffffffffffffffff1673ffffffffffffffffffffffffffffffffffffffff1681526020019081526020015f205f9054906101000a900460ff1615610825576040517f2fad2c3c00000000000000000000000000000000000000000000000000000000815260040160405180910390fd5b5f7f000000000000000000000000000000000000000000000000000000000000000073ffffffffffffffffffffffffffffffffffffffff1663919acbe66040518163ffffffff1660e01b8152600401602060405180830381865afa15801561088f573d5f5f3e3d5ffd5b505050506040513d601f19601f820116820180604052508101906108b39190611314565b90505f7f000000000000000000000000000000000000000000000000000000000000000073ffffffffffffffffffffffffffffffffffffffff1663fc8264c96040518163ffffffff1660e01b8152600401602060405180830381865afa15801561091f573d5f5f3e3d5ffd5b505050506040513d601f19601f820116820180604052508101906109439190611314565b90505f7f000000000000000000000000000000000000000000000000000000000000000073ffffffffffffffffffffffffffffffffffffffff166370a08231306040518263ffffffff1660e01b815260040161099f91906111c5565b602060405180830381865afa1580156109ba573d5f5f3e3d5ffd5b505050506040513d601f19601f820116820180604052508101906109de9190611314565b9050600154811015610a1c576040517fbc6072f100000000000000000000000000000000000000000000000000000000815260040160405180910390fd5b81341015610a56576040517fa815d1d300000000000000000000000000000000000000000000000000000000815260040160405180910390fd5b600160025f8a81526020019081526020015f205f6101000a81548160ff021916908315150217905550600160035f3373ffffffffffffffffffffffffffffffffffffffff1673ffffffffffffffffffffffffffffffffffffffff1681526020019081526020015f205f6101000a81548160ff0219169083151502179055505f600454905060045f815480929190610aec906114fb565b91905055507f000000000000000000000000000000000000000000000000000000000000000073ffffffffffffffffffffffffffffffffffffffff1663961a4e48348b8b8b8b8b6040518763ffffffff1660e01b8152600401610b539594939291906115ba565b5f604051808303818588803b158015610b6a575f5ffd5b505af1158015610b7c573d5f5f3e3d5ffd5b50505050505f84600154610b90919061136c565b90505f7f000000000000000000000000000000000000000000000000000000000000000073ffffffffffffffffffffffffffffffffffffffff1663a9059cbb33846040518363ffffffff1660e01b8152600401610bee92919061139f565b6020604051808303815f875af1158015610c0a573d5f5f3e3d5ffd5b505050506040513d601f19601f82011682018060405250810190610c2e91906113f0565b905080610c67576040517f4cfa12fb00000000000000000000000000000000000000000000000000000000815260040160405180910390fd5b3373ffffffffffffffffffffffffffffffffffffffff168b7f2500ada8ba581126c805692756f230258621bbe372c90d928a7284fab4a9c1ea8486604051610cb092919061141b565b60405180910390a35050505050505050505050565b6003602052805f5260405f205f915054906101000a900460ff1681565b5f5f7f000000000000000000000000000000000000000000000000000000000000000073ffffffffffffffffffffffffffffffffffffffff166370a08231306040518263ffffffff1660e01b8152600401610d3d91906111c5565b602060405180830381865afa158015610d58573d5f5f3e3d5ffd5b505050506040513d601f19601f82011682018060405250810190610d7c9190611314565b905060015481610d8c9190611633565b91505090565b610d9a610e16565b5f73ffffffffffffffffffffffffffffffffffffffff168173ffffffffffffffffffffffffffffffffffffffff1603610e0a575f6040517f1e4fbdf7000000000000000000000000000000000000000000000000000000008152600401610e0191906111c5565b60405180910390fd5b610e1381610e9d565b50565b610e1e610f5e565b73ffffffffffffffffffffffffffffffffffffffff16610e3c6105fe565b73ffffffffffffffffffffffffffffffffffffffff1614610e9b57610e5f610f5e565b6040517f118cdaa7000000000000000000000000000000000000000000000000000000008152600401610e9291906111c5565b60405180910390fd5b565b5f5f5f9054906101000a900473ffffffffffffffffffffffffffffffffffffffff169050815f5f6101000a81548173ffffffffffffffffffffffffffffffffffffffff021916908373ffffffffffffffffffffffffffffffffffffffff1602179055508173ffffffffffffffffffffffffffffffffffffffff168173ffffffffffffffffffffffffffffffffffffffff167f8be0079c531659141344cd1fd0a4f28419497f9722a3daafe3b4186f6b6457e060405160405180910390a35050565b5f33905090565b5f819050919050565b610f7781610f65565b82525050565b5f602082019050610f905f830184610f6e565b92915050565b5f5ffd5b5f5ffd5b5f819050919050565b610fb081610f9e565b8114610fba575f5ffd5b50565b5f81359050610fcb81610fa7565b92915050565b5f60208284031215610fe657610fe5610f96565b5b5f610ff384828501610fbd565b91505092915050565b5f8115159050919050565b61101081610ffc565b82525050565b5f6020820190506110295f830184611007565b92915050565b61103881610f65565b8114611042575f5ffd5b50565b5f813590506110538161102f565b92915050565b5f6020828403121561106e5761106d610f96565b5b5f61107b84828501611045565b91505092915050565b5f73ffffffffffffffffffffffffffffffffffffffff82169050919050565b5f6110ad82611084565b9050919050565b6110bd816110a3565b81146110c7575f5ffd5b50565b5f813590506110d8816110b4565b92915050565b5f602082840312156110f3576110f2610f96565b5b5f611100848285016110ca565b91505092915050565b5f819050919050565b5f61112c61112761112284611084565b611109565b611084565b9050919050565b5f61113d82611112565b9050919050565b5f61114e82611133565b9050919050565b61115e81611144565b82525050565b5f6020820190506111775f830184611155565b92915050565b5f61118782611133565b9050919050565b6111978161117d565b82525050565b5f6020820190506111b05f83018461118e565b92915050565b6111bf816110a3565b82525050565b5f6020820190506111d85f8301846111b6565b92915050565b5f67ffffffffffffffff82169050919050565b6111fa816111de565b8114611204575f5ffd5b50565b5f81359050611215816111f1565b92915050565b5f5ffd5b5f5ffd5b5f5ffd5b5f5f83601f84011261123c5761123b61121b565b5b8235905067ffffffffffffffff8111156112595761125861121f565b5b60208301915083600182028301111561127557611274611223565b5b9250929050565b5f5f5f5f5f6080868803121561129557611294610f96565b5b5f6112a288828901610fbd565b95505060206112b388828901610fbd565b94505060406112c488828901611207565b935050606086013567ffffffffffffffff8111156112e5576112e4610f9a565b5b6112f188828901611227565b92509250509295509295909350565b5f8151905061130e8161102f565b92915050565b5f6020828403121561132957611328610f96565b5b5f61133684828501611300565b91505092915050565b7f4e487b71000000000000000000000000000000000000000000000000000000005f52601160045260245ffd5b5f61137682610f65565b915061138183610f65565b92508282039050818111156113995761139861133f565b5b92915050565b5f6040820190506113b25f8301856111b6565b6113bf6020830184610f6e565b9392505050565b6113cf81610ffc565b81146113d9575f5ffd5b50565b5f815190506113ea816113c6565b92915050565b5f6020828403121561140557611404610f96565b5b5f611412848285016113dc565b91505092915050565b5f60408201905061142e5f830185610f6e565b61143b6020830184610f6e565b9392505050565b5f81905092915050565b50565b5f61145a5f83611442565b91506114658261144c565b5f82019050919050565b5f6114798261144f565b9150819050919050565b5f82825260208201905092915050565b7f455448207472616e73666572206661696c6564000000000000000000000000005f82015250565b5f6114c7601383611483565b91506114d282611493565b602082019050919050565b5f6020820190508181035f8301526114f4816114bb565b9050919050565b5f61150582610f65565b91507fffffffffffffffffffffffffffffffffffffffffffffffffffffffffffffffff82036115375761153661133f565b5b600182019050919050565b61154b81610f9e565b82525050565b61155a816111de565b82525050565b5f82825260208201905092915050565b828183375f83830152505050565b5f601f19601f8301169050919050565b5f6115998385611560565b93506115a6838584611570565b6115af8361157e565b840190509392505050565b5f6080820190506115cd5f830188611542565b6115da6020830187611542565b6115e76040830186611551565b81810360608301526115fa81848661158e565b90509695505050505050565b7f4e487b71000000000000000000000000000000000000000000000000000000005f52601260045260245ffd5b5f61163d82610f65565b915061164883610f65565b92508261165857611657611606565b5b82820490509291505056fea2646970667358221220da293300c39503ad9ca314b7c6590cd7d4eedaf31dd6fd193dac0d476f1c145164736f6c634300081e0033","linkReferences":{}},"methodIdentifiers":{"claimAndAnchor(bytes32,bytes32,uint64,bytes)":"be36a5c4","getNetGrantAmount()":"111849b9","getRemainingGrants()":"e45bb522","grantAmount()":"52fdb2bb","hasAgentClaimed(bytes32)":"259d8028","hasClaimed(bytes32)":"a894c457","hasWalletClaimed(address)":"5d34f4a6","owner()":"8da5cb5b","registry()":"7b103999","renounceOwnership()":"715018a6","setGrantAmount(uint256)":"9a058892","totalGrantsIssued()":"92073251","transferOwnership(address)":"f2fde38b","walletClaimed(address)":"c25d8f4d","withdrawEth()":"a0ef91df","withdrawTokens(uint256)":"315a095d","witnessToken()":"79c859bc"},"id":19}