{"abi":[{"type":"constructor","inputs":[{"name":"_witnessToken","type":"address","internalType":"address"},{"name":"_anchorFee","type":"uint256","internalType":"uint256"},{"name":"_treasury","type":"address","internalType":"address"},{"name":"_burnFees","type":"bool","internalType":"bool"},{"name":"_dustFee","type":"uint256","internalType":"uint256"}],"stateMutability":"nonpayable"},{"type":"function","name":"anchor","inputs":[{"name":"agentPubKeyHash","type":"bytes32","internalType":"bytes32"},{"name":"chainRoot","type":"bytes32","internalType":"bytes32"},{"name":"entryCount","type":"uint64","internalType":"uint64"},{"name":"signature","type":"bytes","internalType":"bytes"}],"outputs":[],"stateMutability":"payable"},{"type":"function","name":"anchorCount","inputs":[{"name":"","type":"bytes32","internalType":"bytes32"}],"outputs":[{"name":"","type":"uint256","internalType":"uint256"}],"stateMutability":"view"},{"type":"function","name":"anchorFee","inputs":[],"outputs":[{"name":"","type":"uint256","internalType":"uint256"}],"stateMutability":"view"},{"type":"function","name":"anchors","inputs":[{"name":"","type":"bytes32","internalType":"bytes32"},{"name":"","type":"uint256","internalType":"uint256"}],"outputs":[{"name":"chainRoot","type":"bytes32","internalType":"bytes32"},{"name":"entryCount","type":"uint64","internalType":"uint64"},{"name":"timestamp","type":"uint64","internalType":"uint64"},{"name":"blockNumber","type":"uint64","internalType":"uint64"},{"name":"signature","type":"bytes","internalType":"bytes"}],"stateMutability":"view"},{"type":"function","name":"burnFees","inputs":[],"outputs":[{"name":"","type":"bool","internalType":"bool"}],"stateMutability":"view"},{"type":"function","name":"dustFee","inputs":[],"outputs":[{"name":"","type":"uint256","internalType":"uint256"}],"stateMutability":"view"},{"type":"function","name":"getAnchor","inputs":[{"name":"agentPubKeyHash","type":"bytes32","internalType":"bytes32"},{"name":"index","type":"uint256","internalType":"uint256"}],"outputs":[{"name":"","type":"tuple","internalType":"struct WitnessRegistry.Anchor","components":[{"name":"chainRoot","type":"bytes32","internalType":"bytes32"},{"name":"entryCount","type":"uint64","internalType":"uint64"},{"name":"timestamp","type":"uint64","internalType":"uint64"},{"name":"blockNumber","type":"uint64","internalType":"uint64"},{"name":"signature","type":"bytes","internalType":"bytes"}]}],"stateMutability":"view"},{"type":"function","name":"getAnchorHistory","inputs":[{"name":"agentPubKeyHash","type":"bytes32","internalType":"bytes32"},{"name":"offset","type":"uint256","internalType":"uint256"},{"name":"limit","type":"uint256","internalType":"uint256"}],"outputs":[{"name":"","type":"tuple[]","internalType":"struct WitnessRegistry.Anchor[]","components":[{"name":"chainRoot","type":"bytes32","internalType":"bytes32"},{"name":"entryCount","type":"uint64","internalType":"uint64"},{"name":"timestamp","type":"uint64","internalType":"uint64"},{"name":"blockNumber","type":"uint64","internalType":"uint64"},{"name":"signature","type":"bytes","internalType":"bytes"}]}],"stateMutability":"view"},{"type":"function","name":"getLatestAnchor","inputs":[{"name":"agentPubKeyHash","type":"bytes32","internalType":"bytes32"}],"outputs":[{"name":"","type":"tuple","internalType":"struct WitnessRegistry.Anchor","components":[{"name":"chainRoot","type":"bytes32","internalType":"bytes32"},{"name":"entryCount","type":"uint64","internalType":"uint64"},{"name":"timestamp","type":"uint64","internalType":"uint64"},{"name":"blockNumber","type":"uint64","internalType":"uint64"},{"name":"signature","type":"bytes","internalType":"bytes"}]}],"stateMutability":"view"},{"type":"function","name":"owner","inputs":[],"outputs":[{"name":"","type":"address","internalType":"address"}],"stateMutability":"view"},{"type":"function","name":"renounceOwnership","inputs":[],"outputs":[],"stateMutability":"nonpayable"},{"type":"function","name":"setAnchorFee","inputs":[{"name":"_fee","type":"uint256","internalType":"uint256"}],"outputs":[],"stateMutability":"nonpayable"},{"type":"function","name":"setBurnFees","inputs":[{"name":"_burn","type":"bool","internalType":"bool"}],"outputs":[],"stateMutability":"nonpayable"},{"type":"function","name":"setDustFee","inputs":[{"name":"_fee","type":"uint256","internalType":"uint256"}],"outputs":[],"stateMutability":"nonpayable"},{"type":"function","name":"setTreasury","inputs":[{"name":"_treasury","type":"address","internalType":"address"}],"outputs":[],"stateMutability":"nonpayable"},{"type":"function","name":"transferOwnership","inputs":[{"name":"newOwner","type":"address","internalType":"address"}],"outputs":[],"stateMutability":"nonpayable"},{"type":"function","name":"treasury","inputs":[],"outputs":[{"name":"","type":"address","internalType":"address"}],"stateMutability":"view"},{"type":"function","name":"witnessToken","inputs":[],"outputs":[{"name":"","type":"address","internalType":"contract IERC20"}],"stateMutability":"view"},{"type":"event","name":"Anchored","inputs":[{"name":"agentPubKeyHash","type":"bytes32","indexed":true,"internalType":"bytes32"},{"name":"chainRoot","type":"bytes32","indexed":false,"internalType":"bytes32"},{"name":"entryCount","type":"uint64","indexed":false,"internalType":"uint64"},{"name":"anchorIndex","type":"uint256","indexed":false,"internalType":"uint256"},{"name":"timestamp","type":"uint256","indexed":false,"internalType":"uint256"}],"anonymous":false},{"type":"event","name":"BurnFeesUpdated","inputs":[{"name":"burn","type":"bool","indexed":false,"internalType":"bool"}],"anonymous":false},{"type":"event","name":"DustFeeUpdated","inputs":[{"name":"oldFee","type":"uint256","indexed":false,"internalType":"uint256"},{"name":"newFee","type":"uint256","indexed":false,"internalType":"uint256"}],"anonymous":false},{"type":"event","name":"FeeUpdated","inputs":[{"name":"oldFee","type":"uint256","indexed":false,"internalType":"uint256"},{"name":"newFee","type":"uint256","indexed":false,"internalType":"uint256"}],"anonymous":false},{"type":"event","name":"OwnershipTransferred","inputs":[{"name":"previousOwner","type":"address","indexed":true,"internalType":"address"},{"name":"newOwner","type":"address","indexed":true,"internalType":"address"}],"anonymous":false},{"type":"event","name":"TreasuryUpdated","inputs":[{"name":"oldTreasury","type":"address","indexed":false,"internalType":"address"},{"name":"newTreasury","type":"address","indexed":false,"internalType":"address"}],"anonymous":false},{"type":"error","name":"DustTransferFailed","inputs":[]},{"type":"error","name":"EntryCountDecreased","inputs":[]},{"type":"error","name":"FeeTransferFailed","inputs":[]},{"type":"error","name":"IndexOutOfBounds","inputs":[]},{"type":"error","name":"InsufficientDustFee","inputs":[]},{"type":"error","name":"InvalidSignatureLength","inputs":[]},{"type":"error","name":"NoAnchorsForAgent","inputs":[]},{"type":"error","name":"OwnableInvalidOwner","inputs":[{"name":"owner","type":"address","internalType":"address"}]},{"type":"error","name":"OwnableUnauthorizedAccount","inputs":[{"name":"account","type":"address","internalType":"address"}]},{"type":"error","name":"RefundFailed","inputs":[]}],"bytecode":{"object":"0x60a060405234801561000f575f5ffd5b50604051612634380380612634833981810160405281019061003191906102df565b335f73ffffffffffffffffffffffffffffffffffffffff168173ffffffffffffffffffffffffffffffffffffffff16036100a2575f6040517f1e4fbdf70000000000000000000000000000000000000000000000000000000081526004016100999190610365565b60405180910390fd5b6100b18161015860201b60201c565b508473ffffffffffffffffffffffffffffffffffffffff1660808173ffffffffffffffffffffffffffffffffffffffff1681525050836003819055508260055f6101000a81548173ffffffffffffffffffffffffffffffffffffffff021916908373ffffffffffffffffffffffffffffffffffffffff16021790555081600560146101000a81548160ff02191690831515021790555080600481905550505050505061037e565b5f5f5f9054906101000a900473ffffffffffffffffffffffffffffffffffffffff169050815f5f6101000a81548173ffffffffffffffffffffffffffffffffffffffff021916908373ffffffffffffffffffffffffffffffffffffffff1602179055508173ffffffffffffffffffffffffffffffffffffffff168173ffffffffffffffffffffffffffffffffffffffff167f8be0079c531659141344cd1fd0a4f28419497f9722a3daafe3b4186f6b6457e060405160405180910390a35050565b5f5ffd5b5f73ffffffffffffffffffffffffffffffffffffffff82169050919050565b5f6102468261021d565b9050919050565b6102568161023c565b8114610260575f5ffd5b50565b5f815190506102718161024d565b92915050565b5f819050919050565b61028981610277565b8114610293575f5ffd5b50565b5f815190506102a481610280565b92915050565b5f8115159050919050565b6102be816102aa565b81146102c8575f5ffd5b50565b5f815190506102d9816102b5565b92915050565b5f5f5f5f5f60a086880312156102f8576102f7610219565b5b5f61030588828901610263565b955050602061031688828901610296565b945050604061032788828901610263565b9350506060610338888289016102cb565b925050608061034988828901610296565b9150509295509295909350565b61035f8161023c565b82525050565b5f6020820190506103785f830184610356565b92915050565b60805161229761039d5f395f81816107ee01526108c901526122975ff3fe608060405260043610610108575f3560e01c8063919acbe611610094578063b2b8e20e11610063578063b2b8e20e14610340578063cba76ebd1461037c578063f0f44260146103b8578063f2fde38b146103e0578063fc8264c91461040857610108565b8063919acbe614610292578063961a4e48146102bc57806397f0db07146102d8578063a69c1f161461030057610108565b80634f3dfcc8116100db5780634f3dfcc8146101d657806361d027b3146101fe578063715018a61461022857806379c859bc1461023e5780638da5cb5b1461026857610108565b806323cf4ce91461010c5780632eefbb3f1461013457806340f6ac31146101705780634cad6a991461019a575b5f5ffd5b348015610117575f5ffd5b50610132600480360381019061012d91906115ed565b610432565b005b34801561013f575f5ffd5b5061015a6004803603810190610155919061164b565b61047f565b604051610167919061186a565b60405180910390f35b34801561017b575f5ffd5b50610184610730565b60405161019191906118a4565b60405180910390f35b3480156101a5575f5ffd5b506101c060048036038101906101bb91906118bd565b610743565b6040516101cd91906118f7565b60405180910390f35b3480156101e1575f5ffd5b506101fc60048036038101906101f7919061193a565b610758565b005b348015610209575f5ffd5b506102126107b4565b60405161021f91906119a4565b60405180910390f35b348015610233575f5ffd5b5061023c6107d9565b005b348015610249575f5ffd5b506102526107ec565b60405161025f9190611a18565b60405180910390f35b348015610273575f5ffd5b5061027c610810565b60405161028991906119a4565b60405180910390f35b34801561029d575f5ffd5b506102a6610837565b6040516102b391906118f7565b60405180910390f35b6102d660048036038101906102d19190611abc565b61083d565b005b3480156102e3575f5ffd5b506102fe60048036038101906102f991906115ed565b610dfd565b005b34801561030b575f5ffd5b5061032660048036038101906103219190611b40565b610e4a565b604051610337959493929190611be4565b60405180910390f35b34801561034b575f5ffd5b5061036660048036038101906103619190611b40565b610f57565b6040516103739190611caf565b60405180910390f35b348015610387575f5ffd5b506103a2600480360381019061039d91906118bd565b611119565b6040516103af9190611caf565b60405180910390f35b3480156103c3575f5ffd5b506103de60048036038101906103d99190611cf9565b6112eb565b005b3480156103eb575f5ffd5b5061040660048036038101906104019190611cf9565b611390565b005b348015610413575f5ffd5b5061041c611414565b60405161042991906118f7565b60405180910390f35b61043a61141a565b7f528d9479e9f9889a87a3c30c7f7ba537e5e59c4c85a37733b16e57c62df613026003548260405161046d929190611d24565b60405180910390a18060038190555050565b60605f60025f8681526020019081526020015f205490508084106104f9575f67ffffffffffffffff8111156104b7576104b6611d4b565b5b6040519080825280602002602001820160405280156104f057816020015b6104dd611569565b8152602001906001900390816104d55790505b50915050610729565b5f83856105069190611da5565b905081811115610514578190505b5f85826105219190611dd8565b67ffffffffffffffff81111561053a57610539611d4b565b5b60405190808252806020026020018201604052801561057357816020015b610560611569565b8152602001906001900390816105585790505b5090505f8690505b828110156107215760015f8981526020019081526020015f2081815481106105a6576105a5611e0b565b5b905f5260205f2090600302016040518060a00160405290815f8201548152602001600182015f9054906101000a900467ffffffffffffffff1667ffffffffffffffff1667ffffffffffffffff1681526020016001820160089054906101000a900467ffffffffffffffff1667ffffffffffffffff1667ffffffffffffffff1681526020016001820160109054906101000a900467ffffffffffffffff1667ffffffffffffffff1667ffffffffffffffff16815260200160028201805461066b90611e65565b80601f016020809104026020016040519081016040528092919081815260200182805461069790611e65565b80156106e25780601f106106b9576101008083540402835291602001916106e2565b820191905f5260205f20905b8154815290600101906020018083116106c557829003601f168201915b5050505050815250508288836106f89190611dd8565b8151811061070957610708611e0b565b5b6020026020010181905250808060010191505061057b565b508093505050505b9392505050565b600560149054906101000a900460ff1681565b6002602052805f5260405f205f915090505481565b61076061141a565b80600560146101000a81548160ff0219169083151502179055507f535ba6e5f90124792a69a72780c8b2fabbee811e5677c2847ed0fdeb8cfea0f6816040516107a991906118a4565b60405180910390a150565b60055f9054906101000a900473ffffffffffffffffffffffffffffffffffffffff1681565b6107e161141a565b6107ea5f6114a1565b565b7f000000000000000000000000000000000000000000000000000000000000000081565b5f5f5f9054906101000a900473ffffffffffffffffffffffffffffffffffffffff16905090565b60035481565b6040828290501461087a576040517f4be6321b00000000000000000000000000000000000000000000000000000000815260040160405180910390fd5b5f60035411156109a2575f600560149054906101000a900460ff166108c05760055f9054906101000a900473ffffffffffffffffffffffffffffffffffffffff166108c4565b61dead5b90505f7f000000000000000000000000000000000000000000000000000000000000000073ffffffffffffffffffffffffffffffffffffffff166323b872dd33846003546040518463ffffffff1660e01b815260040161092693929190611e95565b6020604051808303815f875af1158015610942573d5f5f3e3d5ffd5b505050506040513d601f19601f820116820180604052508101906109669190611ede565b90508061099f576040517f4033e4e300000000000000000000000000000000000000000000000000000000815260040160405180910390fd5b50505b5f6004541115610b64576004543410156109e8576040517f72139c3e00000000000000000000000000000000000000000000000000000000815260040160405180910390fd5b5f60055f9054906101000a900473ffffffffffffffffffffffffffffffffffffffff1673ffffffffffffffffffffffffffffffffffffffff16600454604051610a3090611f36565b5f6040518083038185875af1925050503d805f8114610a6a576040519150601f19603f3d011682016040523d82523d5f602084013e610a6f565b606091505b5050905080610aaa576040517f31cbfeb400000000000000000000000000000000000000000000000000000000815260040160405180910390fd5b600454341115610b62575f3373ffffffffffffffffffffffffffffffffffffffff1660045434610ada9190611dd8565b604051610ae690611f36565b5f6040518083038185875af1925050503d805f8114610b20576040519150601f19603f3d011682016040523d82523d5f602084013e610b25565b606091505b5050905080610b60576040517ff0c49d4400000000000000000000000000000000000000000000000000000000815260040160405180910390fd5b505b505b5f60025f8781526020019081526020015f205490505f811115610c26575f60015f8881526020019081526020015f20600183610ba09190611dd8565b81548110610bb157610bb0611e0b565b5b905f5260205f2090600302019050806001015f9054906101000a900467ffffffffffffffff1667ffffffffffffffff168567ffffffffffffffff161015610c24576040517f0daeb5e400000000000000000000000000000000000000000000000000000000815260040160405180910390fd5b505b60015f8781526020019081526020015f206040518060a001604052808781526020018667ffffffffffffffff1681526020014267ffffffffffffffff1681526020014367ffffffffffffffff16815260200185858080601f0160208091040260200160405190810160405280939291908181526020018383808284375f81840152601f19601f82011690508083019250505050505050815250908060018154018082558091505060019003905f5260205f2090600302015f909190919091505f820151815f01556020820151816001015f6101000a81548167ffffffffffffffff021916908367ffffffffffffffff16021790555060408201518160010160086101000a81548167ffffffffffffffff021916908367ffffffffffffffff16021790555060608201518160010160106101000a81548167ffffffffffffffff021916908367ffffffffffffffff1602179055506080820151816002019081610d8e91906120e1565b50505060025f8781526020019081526020015f205f815480929190610db2906121b0565b9190505550857fa84e3e3f48c4dc897922364ac2ab91d69348023d9e10276efdcb2b3beb81b0cd86868442604051610ded94939291906121f7565b60405180910390a2505050505050565b610e0561141a565b7f7a705ce8c4c420f05a4ffd835154722dd14f9077c5fdfb4a4cd969a4a77bbe0c60045482604051610e38929190611d24565b60405180910390a18060048190555050565b6001602052815f5260405f208181548110610e63575f80fd5b905f5260205f2090600302015f9150915050805f015490806001015f9054906101000a900467ffffffffffffffff16908060010160089054906101000a900467ffffffffffffffff16908060010160109054906101000a900467ffffffffffffffff1690806002018054610ed690611e65565b80601f0160208091040260200160405190810160405280929190818152602001828054610f0290611e65565b8015610f4d5780601f10610f2457610100808354040283529160200191610f4d565b820191905f5260205f20905b815481529060010190602001808311610f3057829003601f168201915b5050505050905085565b610f5f611569565b60025f8481526020019081526020015f20548210610fa9576040517f4e23d03500000000000000000000000000000000000000000000000000000000815260040160405180910390fd5b60015f8481526020019081526020015f208281548110610fcc57610fcb611e0b565b5b905f5260205f2090600302016040518060a00160405290815f8201548152602001600182015f9054906101000a900467ffffffffffffffff1667ffffffffffffffff1667ffffffffffffffff1681526020016001820160089054906101000a900467ffffffffffffffff1667ffffffffffffffff1667ffffffffffffffff1681526020016001820160109054906101000a900467ffffffffffffffff1667ffffffffffffffff1667ffffffffffffffff16815260200160028201805461109190611e65565b80601f01602080910402602001604051908101604052809291908181526020018280546110bd90611e65565b80156111085780601f106110df57610100808354040283529160200191611108565b820191905f5260205f20905b8154815290600101906020018083116110eb57829003601f168201915b505050505081525050905092915050565b611121611569565b5f60025f8481526020019081526020015f205490505f810361116f576040517f87fe464800000000000000000000000000000000000000000000000000000000815260040160405180910390fd5b60015f8481526020019081526020015f2060018261118d9190611dd8565b8154811061119e5761119d611e0b565b5b905f5260205f2090600302016040518060a00160405290815f8201548152602001600182015f9054906101000a900467ffffffffffffffff1667ffffffffffffffff1667ffffffffffffffff1681526020016001820160089054906101000a900467ffffffffffffffff1667ffffffffffffffff1667ffffffffffffffff1681526020016001820160109054906101000a900467ffffffffffffffff1667ffffffffffffffff1667ffffffffffffffff16815260200160028201805461126390611e65565b80601f016020809104026020016040519081016040528092919081815260200182805461128f90611e65565b80156112da5780601f106112b1576101008083540402835291602001916112da565b820191905f5260205f20905b8154815290600101906020018083116112bd57829003601f168201915b505050505081525050915050919050565b6112f361141a565b7f4ab5be82436d353e61ca18726e984e561f5c1cc7c6d38b29d2553c790434705a60055f9054906101000a900473ffffffffffffffffffffffffffffffffffffffff168260405161134592919061223a565b60405180910390a18060055f6101000a81548173ffffffffffffffffffffffffffffffffffffffff021916908373ffffffffffffffffffffffffffffffffffffffff16021790555050565b61139861141a565b5f73ffffffffffffffffffffffffffffffffffffffff168173ffffffffffffffffffffffffffffffffffffffff1603611408575f6040517f1e4fbdf70000000000000000000000000000000000000000000000000000000081526004016113ff91906119a4565b60405180910390fd5b611411816114a1565b50565b60045481565b611422611562565b73ffffffffffffffffffffffffffffffffffffffff16611440610810565b73ffffffffffffffffffffffffffffffffffffffff161461149f57611463611562565b6040517f118cdaa700000000000000000000000000000000000000000000000000000000815260040161149691906119a4565b60405180910390fd5b565b5f5f5f9054906101000a900473ffffffffffffffffffffffffffffffffffffffff169050815f5f6101000a81548173ffffffffffffffffffffffffffffffffffffffff021916908373ffffffffffffffffffffffffffffffffffffffff1602179055508173ffffffffffffffffffffffffffffffffffffffff168173ffffffffffffffffffffffffffffffffffffffff167f8be0079c531659141344cd1fd0a4f28419497f9722a3daafe3b4186f6b6457e060405160405180910390a35050565b5f33905090565b6040518060a001604052805f81526020015f67ffffffffffffffff1681526020015f67ffffffffffffffff1681526020015f67ffffffffffffffff168152602001606081525090565b5f5ffd5b5f5ffd5b5f819050919050565b6115cc816115ba565b81146115d6575f5ffd5b50565b5f813590506115e7816115c3565b92915050565b5f60208284031215611602576116016115b2565b5b5f61160f848285016115d9565b91505092915050565b5f819050919050565b61162a81611618565b8114611634575f5ffd5b50565b5f8135905061164581611621565b92915050565b5f5f5f60608486031215611662576116616115b2565b5b5f61166f86828701611637565b9350506020611680868287016115d9565b9250506040611691868287016115d9565b9150509250925092565b5f81519050919050565b5f82825260208201905092915050565b5f819050602082019050919050565b6116cd81611618565b82525050565b5f67ffffffffffffffff82169050919050565b6116ef816116d3565b82525050565b5f81519050919050565b5f82825260208201905092915050565b8281835e5f83830152505050565b5f601f19601f8301169050919050565b5f611737826116f5565b61174181856116ff565b935061175181856020860161170f565b61175a8161171d565b840191505092915050565b5f60a083015f83015161177a5f8601826116c4565b50602083015161178d60208601826116e6565b5060408301516117a060408601826116e6565b5060608301516117b360608601826116e6565b50608083015184820360808601526117cb828261172d565b9150508091505092915050565b5f6117e38383611765565b905092915050565b5f602082019050919050565b5f6118018261169b565b61180b81856116a5565b93508360208202850161181d856116b5565b805f5b85811015611858578484038952815161183985826117d8565b9450611844836117eb565b925060208a01995050600181019050611820565b50829750879550505050505092915050565b5f6020820190508181035f83015261188281846117f7565b905092915050565b5f8115159050919050565b61189e8161188a565b82525050565b5f6020820190506118b75f830184611895565b92915050565b5f602082840312156118d2576118d16115b2565b5b5f6118df84828501611637565b91505092915050565b6118f1816115ba565b82525050565b5f60208201905061190a5f8301846118e8565b92915050565b6119198161188a565b8114611923575f5ffd5b50565b5f8135905061193481611910565b92915050565b5f6020828403121561194f5761194e6115b2565b5b5f61195c84828501611926565b91505092915050565b5f73ffffffffffffffffffffffffffffffffffffffff82169050919050565b5f61198e82611965565b9050919050565b61199e81611984565b82525050565b5f6020820190506119b75f830184611995565b92915050565b5f819050919050565b5f6119e06119db6119d684611965565b6119bd565b611965565b9050919050565b5f6119f1826119c6565b9050919050565b5f611a02826119e7565b9050919050565b611a12816119f8565b82525050565b5f602082019050611a2b5f830184611a09565b92915050565b611a3a816116d3565b8114611a44575f5ffd5b50565b5f81359050611a5581611a31565b92915050565b5f5ffd5b5f5ffd5b5f5ffd5b5f5f83601f840112611a7c57611a7b611a5b565b5b8235905067ffffffffffffffff811115611a9957611a98611a5f565b5b602083019150836001820283011115611ab557611ab4611a63565b5b9250929050565b5f5f5f5f5f60808688031215611ad557611ad46115b2565b5b5f611ae288828901611637565b9550506020611af388828901611637565b9450506040611b0488828901611a47565b935050606086013567ffffffffffffffff811115611b2557611b246115b6565b5b611b3188828901611a67565b92509250509295509295909350565b5f5f60408385031215611b5657611b556115b2565b5b5f611b6385828601611637565b9250506020611b74858286016115d9565b9150509250929050565b611b8781611618565b82525050565b611b96816116d3565b82525050565b5f82825260208201905092915050565b5f611bb6826116f5565b611bc08185611b9c565b9350611bd081856020860161170f565b611bd98161171d565b840191505092915050565b5f60a082019050611bf75f830188611b7e565b611c046020830187611b8d565b611c116040830186611b8d565b611c1e6060830185611b8d565b8181036080830152611c308184611bac565b90509695505050505050565b5f60a083015f830151611c515f8601826116c4565b506020830151611c6460208601826116e6565b506040830151611c7760408601826116e6565b506060830151611c8a60608601826116e6565b5060808301518482036080860152611ca2828261172d565b9150508091505092915050565b5f6020820190508181035f830152611cc78184611c3c565b905092915050565b611cd881611984565b8114611ce2575f5ffd5b50565b5f81359050611cf381611ccf565b92915050565b5f60208284031215611d0e57611d0d6115b2565b5b5f611d1b84828501611ce5565b91505092915050565b5f604082019050611d375f8301856118e8565b611d4460208301846118e8565b9392505050565b7f4e487b71000000000000000000000000000000000000000000000000000000005f52604160045260245ffd5b7f4e487b71000000000000000000000000000000000000000000000000000000005f52601160045260245ffd5b5f611daf826115ba565b9150611dba836115ba565b9250828201905080821115611dd257611dd1611d78565b5b92915050565b5f611de2826115ba565b9150611ded836115ba565b9250828203905081811115611e0557611e04611d78565b5b92915050565b7f4e487b71000000000000000000000000000000000000000000000000000000005f52603260045260245ffd5b7f4e487b71000000000000000000000000000000000000000000000000000000005f52602260045260245ffd5b5f6002820490506001821680611e7c57607f821691505b602082108103611e8f57611e8e611e38565b5b50919050565b5f606082019050611ea85f830186611995565b611eb56020830185611995565b611ec260408301846118e8565b949350505050565b5f81519050611ed881611910565b92915050565b5f60208284031215611ef357611ef26115b2565b5b5f611f0084828501611eca565b91505092915050565b5f81905092915050565b50565b5f611f215f83611f09565b9150611f2c82611f13565b5f82019050919050565b5f611f4082611f16565b9150819050919050565b5f819050815f5260205f209050919050565b5f6020601f8301049050919050565b5f82821b905092915050565b5f60088302611fa67fffffffffffffffffffffffffffffffffffffffffffffffffffffffffffffffff82611f6b565b611fb08683611f6b565b95508019841693508086168417925050509392505050565b5f611fe2611fdd611fd8846115ba565b6119bd565b6115ba565b9050919050565b5f819050919050565b611ffb83611fc8565b61200f61200782611fe9565b848454611f77565b825550505050565b5f5f905090565b612026612017565b612031818484611ff2565b505050565b5b81811015612054576120495f8261201e565b600181019050612037565b5050565b601f8211156120995761206a81611f4a565b61207384611f5c565b81016020851015612082578190505b61209661208e85611f5c565b830182612036565b50505b505050565b5f82821c905092915050565b5f6120b95f198460080261209e565b1980831691505092915050565b5f6120d183836120aa565b9150826002028217905092915050565b6120ea826116f5565b67ffffffffffffffff81111561210357612102611d4b565b5b61210d8254611e65565b612118828285612058565b5f60209050601f831160018114612149575f8415612137578287015190505b61214185826120c6565b8655506121a8565b601f19841661215786611f4a565b5f5b8281101561217e57848901518255600182019150602085019450602081019050612159565b8683101561219b5784890151612197601f8916826120aa565b8355505b6001600288020188555050505b505050505050565b5f6121ba826115ba565b91507fffffffffffffffffffffffffffffffffffffffffffffffffffffffffffffffff82036121ec576121eb611d78565b5b600182019050919050565b5f60808201905061220a5f830187611b7e565b6122176020830186611b8d565b61222460408301856118e8565b61223160608301846118e8565b95945050505050565b5f60408201905061224d5f830185611995565b61225a6020830184611995565b939250505056fea2646970667358221220859823aa5f7fa4df11caa38f4769082e0b44e424188d7542cc6f3bd779f0b5e964736f6c634300081e0033","linkReferences":{}},"methodIdentifiers":{"anchor(bytes32,bytes32,uint64,bytes)":"961a4e48","anchorCount(bytes32)":"4cad6a99","anchorFee()":"919acbe6","anchors(bytes32,uint256)":"a69c1f16","burnFees()":"40f6ac31","dustFee()":"fc8264c9","getAnchor(bytes32,uint256)":"b2b8e20e","getAnchorHistory(bytes32,uint256,uint256)":"2eefbb3f","getLatestAnchor(bytes32)":"cba76ebd","owner()":"8da5cb5b","renounceOwnership()":"715018a6","setAnchorFee(uint256)":"23cf4ce9","setBurnFees(bool)":"4f3dfcc8","setDustFee(uint256)":"97f0db07","setTreasury(address)":"f0f44260","transferOwnership(address)":"f2fde38b","treasury()":"61d027b3","witnessToken()":"79c859bc"},"id":23}